S01B0000375365674D756C7469706C657841746D6567612E73726563A0
S11300000C9434000C9451000C9451000C94510045
S11300100C9451000C9451000C9451000C94510018
S11300200C9451000C9451000C9451000C948800D1
S11300300C9451000C9451000C9451000C945100F8
S11300400C9451000C9451000C9451000C945100E8
S11300500C9451000C9451000C9451000C945100D8
S11300600C9451000C94510011241FBECFEFD8E022
S1130070DEBFCDBF11E0A0E0B1E0E2E4F2E002C0F7
S113008005900D92A031B107D9F721E0A0E1B1E0CC
S113009001C01D92A831B207E1F70E94DB000C9465
S11300A01F010C940000AC01FB01DB019B012B5FE1
S11300B03F4F80E38D93A217B307E1F79A01ADECAC
S11300C0BCEC0E9410019695879596958795969518
S11300D087959C01220F331F880F991F880F991F42
S11300E0880F991F820F931F9A01281B390BC9018E
S11300F0805D81939A010E941001AC015695479549
S1130100569547955695479541155105B9F6089565
S11301101F920F920FB60F9211248F939F93EF9318
S1130120FF93809110019091110101969093110118
S11301308093100182309105A1F01CF4019739F0ED
S113014031C083309105B9F00497F9F02BC081E7F1
S113015088B9E0911701F0E0E053FF4F80818BB93B
S113016021C082E788B9E0911601F0E0E053FF4F27
S113017080818BB917C084E788B9E0911501F0E05C
S1130180E053FF4F80818BB90DC088E788B9E091B7
S11301901401F0E0E053FF4F80818BB910921101FC
S11301A010921001FF91EF919F918F910F900FBECC
S11301B00F901F9018958FEF8AB987B91092850018
S11301C0109284008DE490E09093890080938800DD
S11301D08DE08093810082E080936F007894109288
S11301E013011092120180E090E064E171E00E943A
S11301F053002FEF81EE94E0215080409040E1F7CE
S113020000C0000080911201909113010196909317
S1130210130180931201803127E2920734F3DFCF78
S1130220A29FB001B39FC001A39F700D811D112433
S1130230911DB29F700D811D1124911D0895F89494
S1050240FFCFEA
S11302424079243019120278001808034621060E58
S9030000FC
