:100000000C9434000C9451000C9451000C94DB00BF
:100010000C9451000C9451000C9451000C9451001C
:100020000C9451000C9451000C9451000C948800D5
:100030000C9451000C9451000C9451000C945100FC
:100040000C9451000C9451000C9451000C945100EC
:100050000C9451000C9451000C9451000C945100DC
:100060000C9451000C94510011241FBECFEFD8E026
:10007000DEBFCDBF11E0A0E0B1E0E0E1F3E002C0FF
:1000800005900D92A031B107D9F721E0A0E1B1E0D0
:1000900001C01D92AE31B207E1F70E941B010C9422
:1000A00086010C940000AC01FB01DB019B012B5F7E
:1000B0003F4F80E38D93A217B307E1F79A01ADECB0
:1000C000BCEC0E94770196958795969587959695B5
:1000D00087959C01220F331F880F991F880F991F46
:1000E000880F991F820F931F9A01281B390BC90192
:1000F000805D81939A010E947701AC0156954795E6
:10010000569547955695479541155105B9F6089569
:100110001F920F920FB60F9211248F939F93EF931C
:10012000FF9380911601909117010196909317010A
:100130008093160182309105A1F01CF4019739F0EB
:1001400031C083309105B9F00497F9F02BC08EE7E8
:1001500088B9E0911D01F0E0E053FF4F80818BB939
:1001600021C08DE788B9E0911C01F0E0E053FF4F1A
:1001700080818BB917C08BE788B9E0911B01F0E053
:10018000E053FF4F80818BB90DC087E388B9E091C0
:100190001A01F0E0E053FF4F80818BB910921701F4
:1001A00010921601FF91EF919F918F910F900FBECA
:1001B0000F901F9018951F920F920FB60F92112457
:1001C0008F939F931C9911C08091120190911301FC
:1001D000892B59F4109219011092180181E090E0D6
:1001E00090931301809312011FC01D991DC080912F
:1001F000100190911101892BB9F480911401909113
:100200001501019729F4109215011092140106C0EE
:1002100081E090E0909315018093140181E090E0DB
:1002200090931101809310019F918F910F900FBEB9
:100230000F901F9018958FEF8AB987B914B885B9B8
:1002400081E08093680080E380936B0010928500CA
:10025000109284008DE490E0909389008093880050
:100260008DE08093810082E080936F00789480918C
:10027000140190911501892B49F4809118019091F6
:100280001901019690931901809318016AE171E0B8
:1002900080911801909119010E9453002FEF81EE77
:1002A00094E0215080409040E1F700C00000809130
:1002B000120190911301019721F4109213011092F1
:1002C00012018091100190911101019721F4109277
:1002D0001101109210018091180190911901803143
:1002E00097422CF21092190110921801C0CFA29FD0
:1002F000B001B39FC001A39F700D811D1124911DFA
:10030000B29F700D811D1124911D0895F894FFCFA7
:100310004079243019120278001808034621060E8D
:00000001FF
